:020000040800F2
:10000000001800207D590008A5220008A72200083A
:1000100000000000000000000000000000000000E0
:10002000000000000000000000000000A9220008FD
:100030000000000000000000AB220008AD22000814
:10004000FD590008FD590008FD590008FD59000838
:10005000FD590008FD590008FD590008FD59000828
:10006000FD590008B5220008FD590008FD59000897
:10007000C5220008FD590008FD590008FD59000877
:10008000FD5900080000000000000000D522000813
:1000900000000000FD590008FD590008E522000895
:1000A00000000000FD590008FD590008FD59000836
:1000B000FD59000800000000FD590008FD59000826
:1000C00010B5064C2378002B07D1054B002B02D02E
:1000D000044800E000BF0123237010BD400400204D
:1000E00000000000505D0008044B10B5002B03D049
:1000F0000349044800E000BF10BDC04600000000F6
:1001000044040020505D0008002243088B4274D351
:1001100003098B425FD3030A8B4244D3030B8B4208
:1001200028D3030C8B420DD3FF22090212BA030C11
:100130008B4202D31212090265D0030B8B4219D3F2
:1001400000E0090AC30B8B4201D3CB03C01A524112
:10015000830B8B4201D38B03C01A5241430B8B425A
:1001600001D34B03C01A5241030B8B4201D30B0343
:10017000C01A5241C30A8B4201D3CB02C01A52416A
:10018000830A8B4201D38B02C01A5241430A8B422D
:1001900001D34B02C01A5241030A8B4201D30B0216
:1001A000C01A5241CDD2C3098B4201D3CB01C01A30
:1001B000524183098B4201D38B01C01A524143093A
:1001C0008B4201D34B01C01A524103098B4201D328
:1001D0000B01C01A5241C3088B4201D3CB00C01A95
:1001E000524183088B4201D38B00C01A524143080D
:1001F0008B4201D34B00C01A5241411A00D2014632
:10020000524110467047FFE701B5002000F006F8A4
:1002100002BDC0460029F7D076E770477047C04658
:100220008446081C6146FFE71FB500F04FFB00281D
:1002300001D40021C8421FBD10B500F0D3FA4042DE
:10024000013010BD10B500F041FB002801DB00209B
:1002500010BD012010BDC04610B500F037FB0028CE
:1002600001DD002010BD012010BDC04610B500F01A
:10027000E1FA002801DC002010BD012010BDC046BD
:1002800010B500F0D7FA002801DA002010BD0120D7
:1002900010BDC046F0B54646D6464F464D02420216
:1002A000C0B5520A6E0A4700B0463F0E4E00C40F5A
:1002B000D00094463B008246360EC90FAD098C42F1
:1002C0006DD0B81B814600284DDD002E00D188E09E
:1002D000FF2F5AD08023DB041D434B4601221B2BEA
:1002E0000ADC2B004A464946D3402022521A954048
:1002F0002A00551EAA411A4353469A1A530100D4A4
:10030000B9E092019609300001F0F4FD053886400D
:10031000874200DDD4E03300C71B20200137FB40BB
:10032000C71BBE403200561EB24100271A43530776
:1003300004D00F231340042B00D00432530100D407
:100340009CE07B1CFE2F00D19AE09201520A944659
:10035000DBB2D8056346E407184320431CBC904633
:100360009946A246F0BD002849D0F31B002F00D0CB
:10037000B6E05246002A60D0013B002B00D1FCE0E1
:10038000FF2E00D0B4E00C004246002A78D0802036
:10039000C00310434202530A9C46FF23D9E7B91B0E
:1003A000002971DD002E3FD0FF2FEED08023DB042B
:1003B0001D4301221B2907DC2A002023CA40591AA9
:1003C0008D406B1E9D412A435244530153D5013742
:1003D000FF2F55D001237B49134052080A401A438E
:1003E000A5E7002D2CD001235B429C46E1444B46FF
:1003F000002B00D1ADE0FF2F00D06EE7C5E7FE2057
:100400007E1C304260D1002F00D093E05246002A7B
:1004100000D1B6E0002D9CD0521B500100D4C3E0A7
:1004200053460C00EA1A82E7002D09D00139002951
:1004300000D18BE0FF2FBCD1A7E70C00424637006C
:10044000FF2FA2D05202530A9C46FBB281E7FE2145
:100450000137394265D1002B7ED1002800D1AAE0B6
:10046000002D00D175E72A0052440027530102D520
:10047000554B01371A40530700D05AE7D208DFE73F
:100480000022FF23944664E70029E0D0F31B002FED
:100490003ED0FF2E00D177E780220100D204114325
:1004A0008A4601221B2B08DC524620215046DA40A6
:1004B000CB1A9840431E984102433700521984E7F3
:1004C000414A3F1A324032E753465E1B73012DD436
:1004D000002E00D017E7002200240023944638E7BE
:1004E000FF2E00D14FE780225046D20410438246AF
:1004F00001221B2B08DC524620245046DA40E31A26
:100500009840431E984102430C003700AA1AF5E6B2
:10051000002893D0013B002B4FD0FF2EC1D1424683
:1005200033E7FF2FACD055446A08A4E753460C00CC
:10053000EE1AE8E65346002B28D1002D00D022E722
:100540008023DB039C460024FF2302E72A00524459
:100550003BE753465A1BD1E6002800D114E7002D93
:1005600000D112E78023DB031A4200D10DE7414698
:10057000194200D009E7424607E70C003700AA1AE3
:10058000BCE6002D13D00C00C446E2E6002D00D1DD
:10059000FBE68023DB031A4200D1F6E64046184210
:1005A00000D0F2E60C00EFE6002A00D063E700225C
:1005B00000249446CDE6C446CBE62A0037005244D8
:1005C00003E7C046FFFFFF7DFFFFFFFBF0B54F468F
:1005D0004646D6464502C0B547000C1C6D0A3F0E84
:1005E000C60F002F66D0FF2F6CD00023EA008025B5
:1005F00099469A46ED0415437F3F60026100430A25
:100600009846090EE40F002948D0FF2910D0802217
:10061000D800D2040243904600207F394A46330076
:100620007F1A02436C4992008A586340DBB29746B6
:10063000002B6DD10220FF3F33E0002398462600B7
:10064000454682465346022B00D17FE0032B00D162
:1006500094E0012B17D038007F3000285FDD6B0756
:1006600004D00F232B40042B00D004352B0103D5DD
:1006700038005A4B80301D40FE2867DCAD016D0A02
:10068000C0B202E01E0000200025C0052843F60786
:1006900030431CBC90469946A246F0BD002B2BD19E
:1006A00001204A4633004E49024392008A58634073
:1006B000DBB29746002D13D104239946033B002754
:1006C0009A469AE7002D05D108239946063BFF2755
:1006D0009A4692E70C239946093BFF279A468CE7F6
:1006E000280001F007FC7627431F9D4000237F422E
:1006F00099469A463F1A80E7180001F0FBFB4246F4
:10070000431F76219A404942091A9046002085E706
:10071000FF21032082E71E00FF200025B5E701230B
:100720001B1A1B2BAFDC9E372900BD40D9406A1E27
:1007300095410D436B0704D00F232B40042B00D0B1
:1007400004356B0144D5012000259EE7FF200025DC
:100750009BE780250026FF20ED0396E700239846BF
:100760008020C003054209D04346034206D14546D6
:1007700005436D022600FF206D0A86E78020C00336
:1007800005436D02FF206D0A7FE741466A0148017B
:10079000824219D21B210025013F012614006D0061
:1007A0005200002C01DB904201D8121A3543013966
:1007B0000029F3D1501E824138007F301E001543BE
:1007C000002800DD4BE7AAE71A210125121AE4E709
:1007D000AD0100206D0A58E7985D0008FFFFFFF7A4
:1007E000D85D000870B542004E024C0045026D0A0B
:1007F000120EC30F760A240EC90FFF2A0FD0FF2C4A
:1008000011D00120A24200D070BDB542FCD18B4274
:100810000DD0002AF8D12800451EA841F4E7012098
:10082000002DF1D1EBE70120002EEDD1E9E700200A
:10083000EAE7C046F0B5420046024D024C00C30F45
:10084000760A120E6D0A240EC80FFF2A1FD0FF2C45
:1008500010D0002A1FD171427141002C01D1002D0E
:100860001ED000290ED183421ED00221581E0840FE
:100870000138F0BD002D26D1002AF4D1714271411A
:100880000029F0D00028F4D101204042F1E7002EE9
:1008900019D1FF2CEED0002CE5D1002DE3D1E4E7F7
:1008A0000020002EE5D0E0E7A24205DCEADBAE4204
:1008B00002D8E7D30020DCE741424141484202210F
:1008C00008400138D5E702204042D2E7F0B54200A7
:1008D00046024D024C00C30F760A120E6D0A240E1A
:1008E000C80FFF2A0DD0FF2C0FD0002A23D1714250
:1008F0007141002C0FD1002D0DD10020002E14D0FD
:100900000DE0002E10D1FF2C15D1002D0CD1002AA6
:1009100003D171427141002908D1834210D00221D4
:10092000581E0840013800E00220F0BD0028FCD12C
:1009300001204042F9E7002CEFD1002DEDD1EEE788
:10094000A24205DCF2DBAE4202D8EFD30020ECE796
:10095000414241414842022108400138E5E7C04692
:10096000F8B557464E464546DE464402E0B54500DA
:100970000F1C640A2D0EC60F002D47D0FF2D4DD041
:10098000002380209A469B46E400C00404437F3D38
:100990007802430A99467A00FB0F9846120E4B469E
:1009A00044D0FF2A11D0D8008023DB0403439946AA
:1009B00000207F3AAD18474653467740691C0F2BFD
:1009C0003FD8724A9B00D3589F46FF35002B00D07A
:1009D00079E0524602231A4392460220EBE747464B
:1009E0004C4683465B46022B28D0032B00D1C6E041
:1009F000012B4FD100200024C005FF0720433843BE
:100A00003CBC90469946A246AB46F8BD002C71D13D
:100A100004239A46033B00259B46B9E7002C63D18B
:100A200008239A46063BFF259B46B1E7002B50D191
:100A3000524601331A4392460120BCE7FF200024AE
:100A4000DAE74846260C2404220C0404240C4B4606
:100A500020001B0C504374435A435E431219030C8D
:100A60009B189C4203D9802252029446664400049B
:100A70001A04000C12189401601E84411B0C920E83
:100A80009B1914439B011C431B0172D50120630871
:100A900004401C4308007F3000283CDD630704D07D
:100AA0000F232340042B00D00434230103D58031CD
:100AB0000800374B1C40FE28C0DCA401640AC0B209
:100AC0009AE737008EE7524603231A4392460320E3
:100AD00071E7484601F00EFA4A46431F9A402D1A24
:100AE00091460020763D66E70C239A46093BFF2598
:100AF0009B464DE7200001F0FDF97625431F9C4001
:100B000000236D429A469B462D1A41E78024002718
:100B1000FF20E40370E701231B1A1B2B00DD69E7AC
:100B20009E3120008C40D840631E9C4104436307E3
:100B300004D00F232340042B00D0043463011AD5C2
:100B40000120002458E78020C003044209D04B460E
:100B5000034206D14C46044364024746FF20640A20
:100B60004AE78020C003044364023700FF20640A80
:100B700042E729008EE7A4010020640A3CE78020B8
:100B8000C00304436402FF20640A35E7185E0008CE
:100B9000FFFFFFF7F0B54646D6464F4643025B0AD5
:100BA000DA0094464A02C0B54400560A051CB04615
:100BB000240E4E0092091F0020009246ED0F360EC3
:100BC000C90FFF2E00D17FE0012251408D4251D04C
:100BD000A21B9146002A00DC7EE0002E00D199E0A5
:100BE000FF2C00D18CE080235246DB041A4392464E
:100BF0004A4601231B2A08DC53462021D340891A88
:100C000052468A40511E8A4113436246D31A5A0102
:100C100000D4F3E09B019E09300001F06BF9053828
:100C20008640844200DDF7E03200041B20200134BE
:100C3000E240041BA64033005E1EB3410024134370
:100C40005A0704D00F221A40042A00D004335A0154
:100C500000D4D6E0621CFE2C00D1DAE09B015F0AD2
:100C6000D0B2C0053843ED0728431CBC90469946D6
:100C7000A246F0BDA21B9146002A63DD002E00D1E2
:100C800099E0FF2C3CD080235246DB041A43924665
:100C90004A4601231B2A08DC53462021D340891AE7
:100CA00052468A40511E8A41134363445A0100D47C
:100CB000A4E00134FF2C00D1ABE0012297491A4097
:100CC0005B080B401343BBE7002A32D08D4235D07E
:100CD000FF2252429146A1444A46002A51D0301B7D
:100CE000002C00D09CE06346002B00D1DFE00138EF
:100CF000002800D1F7E0FF2E00D099E00D00434618
:100D0000002B00D185E08027FF031F437F02FF20D7
:100D10007F0AA6E75246002A74D00122524290462A
:100D2000C1444A46002A00D1C8E0FF2C00D05FE74A
:100D3000E6E701225140A94200D049E7FF22524292
:100D40009146A1444A46002A43D0311B002C00D1D1
:100D50008CE0FF2E00D192E080236246DB041A4330
:100D6000944601231B2909DC202063466246CB40C0
:100D7000411A8A401100481E81410B4334005344FC
:100D800094E7FE22661C324264D1002C00D082E03F
:100D90006346002B00D1ABE05346002B00D160E747
:100DA000634652469B1A5A0100D4AAE06346524653
:100DB0000D00D31A44E75246002A23D001225242A2
:100DC0009046C1444A46002A75D0FF2C00D05FE708
:100DD00096E7FE260134264253D1002872D163469D
:100DE000002B00D193E05346002B00D139E7634438
:100DF00000245A0102D54A4A013413405A0700D050
:100E000020E7DB08FF2C00D17AE75B025F0AE0B243
:100E100027E7FF20002724E7414B241A33400FE740
:100E2000FF2E00D16AE780236246DB041A43944612
:100E300001231B2809DC202463466246C340201A94
:100E400082401000441EA041034352460D0034006E
:100E5000D31ADCE6634652469E1A730117D4002E5D
:100E600000D0D9E6002500200027FAE66346002BD3
:100E700044D0013900294CD0FF2E00D071E7434601
:100E80003EE7FF2CC5D0524662445308B6E763469E
:100E90000D00D61AC0E66246002A16D15346002B32
:100EA00000D02BE780270025FF20FF03D9E60D00A7
:100EB00043463400A6E753466344F7E6634652468A
:100EC0009B1AA4E66246002AD9D05246002A00D1D5
:100ED00016E78022D203134200D111E740461042A8
:100EE00000D00DE70AE752460D003400D31A8EE613
:100EF0005346002B08D00D004746B2E64346340067
:100F000080E7002B00D079E700250027A9E64746B7
:100F1000A7E6534634006344C8E6C046FFFFFF7DA2
:100F2000FFFFFFFB41024200C30F490A0020120EDF
:100F30007E2A03D99D2A02D9094A98187047802031
:100F400000040143952A07DC9620821AD1404842CA
:100F5000002BF3D10800F1E7963A9140F7E7C0463D
:100F6000FFFFFF7F70B5051E0ED000F0C3FF9E236C
:100F700004001B1A962B0CDC082801DD083CA54058
:100F80006D026D0AD8B201E000200025C00528439B
:100F900070BD992B09DD020029001B3291404A1EC9
:100FA00091410522121AD5400D43052C01DD621F27
:100FB00095402900084E31406A0709D00F2028408B
:100FC000042805D004314A0102D59F2331401B1B60
:100FD00089014D0AD8B2D9E7FFFFFFFB03685A0029
:100FE00004D5802212061343C01870475B005B08CB
:100FF000FAE7C046F8B557464546DE464E469046A7
:10100000E0B50700002924D04B1E9A4699460023DC
:101010009B465B464B44DC0FE4186410E5007E19E8
:101020003000FFF7DBFFA2450CD040450CD828006C
:1010300008303818FFF7D2FF013840450AD2631C48
:101040009B46E6E7404505D9A34502D0631E994675
:10105000DFE7002630003CBC90469946A246AB46EE
:10106000F8BDC0460300012805D0022807D00020A3
:10107000002B02D070470348FCE70348FAE7034817
:10108000F8E7C0468D170008811700089917000877
:1010900030B5234B050083B08C1E002B26D02000DA
:1010A00001A900E000BF00281CD001992200FFF731
:1010B000A1FF041E16D0FFF791FF6368A864012BFF
:1010C0002AD0201D002B23DBFFF788FF0023E864D4
:1010D0002B650368002B0FDBFFF780FF28610020E2
:1010E00003B030BD002309202B61F9E70D480E49FC
:1010F000091AC9100191D9E71801000FFFF7B2FFD3
:101100002861431E98410823404298430930E7E78D
:101110000123E8642B65DCE7002305202B61DFE772
:1011200000000000645F000864600008036810B5F8
:101130000400DA0705D49B070AD5483000F08AFC82
:1011400023685A070AD51A070FD5DB0615D510BD37
:10115000483000F07BFC23685A07F4D42000D030DC
:1011600000F07CFC23681A07EFD420005130FF30D8
:1011700000F078FC2368DB06E9D42000D130FF3092
:1011800000F074FCE3E7C04603000068002800D0CC
:10119000C0187047092070477047C04670B50400FA
:1011A0000D002000296CFFF773FF002811D12B6C74
:1011B0002A00636121000120236998470828F0D0A4
:1011C000072806D10020296CFFF7E6FF281D00F054
:1011D00027FC04F015FCC046F0B5CE46474680B566
:1011E000C368304C9846A544836904001600043156
:1011F000402205A8994604F033FC0023049325E01F
:10120000F022149B5200636104A97CA8039304F0AC
:1012100027FC2100280023697CAA98478A9B0500A7
:10122000039315934B46019304AB009322002300D4
:1012300031000120C047002822D1F0227CA95200B1
:1012400004A804F00DFC0026082D22D1149B2000D8
:1012500019000393FFF71CFF09360700F5B20028B9
:10126000CED0129B1021039315934B46019304ABF0
:1012700000932200230001202943C047002800D00A
:1012800009273800F5239B009D440CBC90469946E5
:10129000F0BD072DF4D130001499FFF77DFF05A8AC
:1012A00000F0BEFB2CFCFFFF406C704770B5CB6BB1
:1012B000FAB00B6405000E004022043103A804F0CC
:1012C000CFFB01235B42029306E029002B6902AAAF
:1012D0009847040008280AD1129B2800190001939E
:1012E000FFF7D6FE0028F0D009207AB070BD02A822
:1012F000FFF71CFF062CF7D131002800FFF74EFF47
:1013000010B58261DA6BC1601A6419000022FFF720
:1013100063FF10BD436970B50B64C36804000D0022
:10132000002B13D10A0023690100022098470728E7
:1013300005D008280FD129002000FFF72FFF00203B
:10134000296CFFF729FF281D00F06AFB0122FFF737
:1013500043FF04F055FB04F053FBC046C36810B5CF
:10136000002B05D0CB6B00220B64FFF735FF10BDBF
:10137000FFF79CFFFBE7C0467047C046836801004B
:1013800010B5002B01D00120984710BD012915D0C0
:101390000AD8002B10D10F2A0ED89200821852685A
:1013A000009B00201A6006E001200339C9B2884280
:1013B00080414042013070470220FCE70120FAE7FB
:1013C00000B585B003AB0A00009300210023FFF7AE
:1013D000DDFF039805B000BD012915D00AD8002B08
:1013E00010D10F2A0ED8009B92001B688218536000
:1013F000002006E001200339C9B288428041404202
:10140000013070470220FCE70120FAE700B585B003
:1014100003AB039200930A0000230021FFF7DCFFD7
:1014200005B000BD70B51A4CD36BA544136405001C
:101430000C0019A8111D402204F012FB01235B428D
:10144000189314E00C2118A802AAFFF7DFFF21006F
:1014500018A8A847002812D1069B18AA02A908308C
:1014600001939847060005280AD0092807D0289B31
:1014700002A819000193FFF70BFE0028E2D009260D
:1014800018A8FFF753FE300090239B009D4470BDC9
:10149000C0FDFFFFF0B557469246032245464E4633
:1014A000DE4699461300E0B58846CD6C494689B0C2
:1014B0000340009308CD0695002900D180E01A0C66
:1014C0001B040593022304A90B73FD3313409B00F7
:1014D0004A73ED18009B022B01D143469D6B434696
:1014E0001B6DDB070FD5504605A900F065FB0028F2
:1014F00001D1082000E0092009B03CBC9046994683
:10150000A246AB46F0BD2F68002FECD00823034065
:10151000029300230193013354469B464646BA4644
:101520004B46022B49D02B886F889A4604355B4680
:1015300038009843B36C0F21984680442000FFF791
:101540003FFF0023804506D853465A469343434401
:1015500098429B415B4202227F0017405946524607
:101560000A401743012F30D0022F4CD0002FC2D198
:10157000009A002A02D0002B00D09BE004352B6893
:101580009A46002BCCD1200005A9A24600F014FBFE
:101590000028B0D1019B002BABD00F215046FFF7A4
:1015A0000FFF0E2102005046FFF730FF50460F217B
:1015B000724AFFF72BFF07209EE76F680835B6E7F2
:1015C0001B02059304AB9A8184E7009A002A49D153
:1015D000002B16D02B68DF0F6B689A1C00D18AE7AE
:1015E000320058320492013300D1B6E0281DFFF7D3
:1015F000CBFD3A00010004AB300000E000BF002842
:101600006CD10835BBE72A68009957007F0800298C
:101610000DD1002B04D0029B002B72D0002F3CD0A8
:10162000002A00DA04350137BF00ED19A7E7336A55
:101630000D2120009846FFF7C3FE804501D02A689F
:10164000EEE7B36A9D42FAD10023F36204333363B9
:101650002B1DB76273632B68002B00DA87E0012330
:101660000193E0E70D212000376AFFF7A9FE8742CA
:10167000C7D1B36A9D42C4D1B046A2462800FFF745
:10168000ADFC0F2102005046FFF7C0FE5046424617
:101690000021FFF7BBFE07202EE7B046A2460D2132
:1016A0005046FFF78DFE4346049A18625A620620A0
:1016B0009D6221E72800FFF791FC0435A246B5633F
:1016C0000400300000E000BF002800D113E75046BE
:1016D00022000F21FFF79AFE07200DE7A2460D21F9
:1016E00004005046FFF76CFEB04633003062022C17
:1016F00039D1049A2C33F2627362434606209D620C
:10170000FAE62B1D9A460023984658339C46210042
:101710004A46B4445446A9468A463D000392474689
:10172000E0460EE0434620000493FFF72DFD002223
:10173000010004AB300000E000BF01370434002892
:1017400004D1AF42EED14D46B046A8E72F004D463A
:10175000039B544699462A6862E70D212000FFF753
:101760002FFEB04630624346049A5A62C5E7781CA1
:101770008000B046A246281881E7C046000000005D
:1017800010B50023FFF786FE10BDC04610B501233B
:10179000FFF780FE10BDC04610B50223FFF77AFEAA
:1017A00010BDC046F0B5CE46474680B505001400D2
:1017B0001E00C3B0032970D04DD8002900D174E0B9
:1017C00001296CD1130C14049846240C012E00D16D
:1017D000A8E0052E63D11B19202B60D842460F2AA2
:1017E00000D8C0E0A146002C00D0D1E0AA6B20AF09
:1017F000002C2ED0002399464346DB00FF1800231F
:10180000E400D158F95004339C42FAD14B461219E6
:10181000002B10D06F464046102800D210204B46B7
:10182000D90000231038C0003818D458C4500433ED
:101830009942FAD15218012E00D1CFE04346AA6353
:101840000F2B00D8CCE04B46002B02D0684600F0AE
:1018500005F9002024E0042921D1002B1FD1102AF2
:101860001DD8102203681A4200D0A9E020AF38002A
:1018700000F0FEF800230120AA6B010099400C4201
:1018800002D040CA99007E500133042BF5D13800B4
:10189000AA6300F0EBF8002002E0032B1FD0022027
:1018A00043B00CBC90469946F0BD002BF7D1012106
:1018B0008846291D00238C461004AA6B000C414663
:1018C0009940084203D0664680CA99007750013398
:1018D000102BF4D10020A304E2D4AA63E0E714049F
:1018E000160C240C3319102BD9D8082203681A427D
:1018F0006DD120AF380000F0B7F8F600AB6B002CCC
:101900000AD0F61AE400321F1C19BA181900096827
:1019100004339950A342F9D13800AB6300F0A2F828
:101920000020BDE71B19102BB9D843460F2BB6D8A2
:101930002B681E4206D00322280093432B604830B8
:1019400000F086F820AF380000F082F80023AA6B80
:101950009946002C00D04FE704323800AA6300F00B
:1019600075F800209CE7102B45D910225242914671
:10197000994401222B681A4207D09343022228007F
:1019800013432B60483000F067F84B46002B35D0EE
:1019900004222B681A4227D143460F2B03D820AFCD
:1019A000380000F059F86F46380000F059F810245C
:1019B0004346AA6BE41A002C00DC2CE720AF1BE79F
:1019C00093430360D130FF3000F052F84EE7934369
:1019D00003605130FF3000F047F88AE720AFBBE7E3
:1019E00020A800F037F82EE7280093432B60D03072
:1019F00000F036F8D0E700239946BAE743460F2BAC
:101A000000D9F3E620AF380000F026F8AA6B002CCE
:101A100000D0EFE6380000F01DF8002040E7C04697
:101A2000011C343138C9043B9C461D60A646011C8C
:101A300020313CC990469946A246AB46011C08316C
:101A4000FCC941680068E54600BDC0467047C04615
:101A50007047C0467047C0467047C0467047C04692
:101A60007047C0467047C0467047C0467047C04682
:101A70007047C04601B401A801B585B0FFB408A8FD
:101A800041464A4653465C4665463EC001A83EC8AC
:101A90000F98009000230CB401A9FFF707FC109BDE
:101AA00012B0184701B401A801B585B0FFB408A869
:101AB00041464A4653465C4665463EC001A83EC87C
:101AC0000F98009000230CB401A9FFF723FC109B92
:101AD00012B0184701B401A801B585B0FFB408A839
:101AE00041464A4653465C4665463EC001A83EC84C
:101AF0000F98009000230CB401A9FFF72FFC109B56
:101B000012B0184701B401A801B585B0FFB408A808
:101B100041464A4653465C4665463EC001A83EC81B
:101B20000F98009000230CB401ABFFF7E9FB109B6A
:101B300012B0184701B401A801B585B0FFB408A8D8
:101B400041464A4653465C4665463EC001A83EC8EB
:101B50000F98009000230CB401AAFFF763FC109BC0
:101B600012B01847027A0300002A0BD1427A002AE9
:101B70000FD0013A42724268111D41600321126880
:101B8000017202E0013A02720268100E12021A603B
:101B90007047B020FCE7C04600B585B003AB0093AA
:101BA0000C2200230021FFF7F1FB039805B000BDD4
:101BB00010B5FFF7F1FF10BDF0B54E46454657464C
:101BC000DE460023E0B587B003930F339846083B09
:101BD000994680231B0305000E009A463000FFF74C
:101BE000C1FF0400B02800D1C1E0030629D50300DD
:101BF00042469343DBB2802B53D0902B3DD0A02B99
:101C00006BD0B02B00D17EE0C02B00D195E003005B
:101C10004A469343DBB2D02B0AD1534602400132ED
:101C20001A43052301212800FFF7BCFD0028D5D069
:101C30000924200007B03CBC90469946A246AB461A
:101C4000F0BDFF23820013401F1D05AB9B46009390
:101C50000D22002300212800FFF798FB630639D4EA
:101C6000059B9C4667445B460597009300230D2225
:101C700000212800FFF7B0FBB0E7833B03400D2BAA
:101C8000D6D005AF02400023002128000097FFF7BF
:101C90007DFB00230D22002128000097FFF79CFB0D
:101CA0009CE704023000FFF75DFF802720433F02DE
:101CB000B842BDD004010005020C00230021280019
:101CC000FFF770FD0028B3D13C4200D186E7012325
:101CD000039383E7059BDF1BC5E7FF234A461B01F0
:101CE0001900824311410A001A40030702D58023DC
:101CF000DB011A43002300212800FFF753FD0028D1
:101D000000D16BE794E7B12845D0B22800D19FE01D
:101D1000B32855D0FC230340B42B00D188E74A46B2
:101D20005346024001321A43012101232800FFF7E4
:101D300039FD002800D151E77AE7C6284BD0C728E3
:101D40005DD003004A469343DBB2C02B6CD0C82859
:101D500071D0C92800D06BE73000FFF703FFF023F4
:101D600002031B03134042460240013258E7039B23
:101D70000024002B00D05CE705AE0E2200212800D5
:101D80000096FFF703FB00230F2200212800009696
:101D9000FFF722FB4DE73000FFF7E4FE021E00D103
:101DA00046E7030041468B43DBB2002B00D03FE700
:101DB00000212800FFF7F6FC002800D10EE737E7E6
:101DC0003000FFF7CFFEF02302031B03134042460F
:101DD00002400132A7E73000FFF7C4FEF023020300
:101DE0001B0313404246024001321A4303230321DE
:101DF0002800FFF7D7FC002800D1EFE618E73000F5
:101E0000FFF7B0FE021E00D112E7030041468B43EC
:101E1000DBB2002B00D00BE704212800FFF7C2FC47
:101E2000002800D1DAE603E74346A0221C40013433
:101E300012032243DAE73000FFF794FE4346020024
:101E40009A43D2B210321840120301300243E8E63E
:101E500005AB00939B460D22002300212800FFF7CD
:101E600095FA3000FFF77EFE03061AD57F27B03CB7
:101E7000059B3840A0409C466044059030000734E4
:101E8000FFF770FE0306F3D481217F2389008C467F
:101E90000340A340059A62449B1805935B46009358
:101EA000E4E60224F0E7C046030000B5DB6C85B031
:101EB0005A680800120201921A000832694602921A
:101EC00003220A73DB794B7301A9FFF775FE05B096
:101ED00000BDC04610B5FFF76BFE806C10BDC0465C
:101EE00010B5FFF765FEC36CD87902308000181872
:101EF00010BDC0461C2101231B04984201D3000CD5
:101F000010391B0A984201D3000A08391B0998426C
:101F100001D30009043902A2105C40187047C04682
:101F200004030202010101010000000000000000A2
:101F300000B585B00C22002101A803F0E3FD18488C
:101F4000184B0360002343608360C3600122026179
:101F500004214161037643768376C376C221FF3143
:101F6000C16103629E39FF394354826200F07AFCFA
:101F700000280FD10423019380235B010293802367
:101F80005B05039301A9064800F03EFE002804D13A
:101F900005B000BD00F01AF9ECE700F017F9F7E71B
:101FA0006C0400200024014030B589B004001422E4
:101FB000002103A803F0A6FD234B22689A4201D01A
:101FC00009B030BD214B996980208000014399619F
:101FD0009A6902400192019A5A69802189020A4352
:101FE0005A615B690B400293029B102303930D3BE4
:101FF0000493002505957138FF3803A9C00501F049
:1020000063F91348134B0360456085608023C36008
:10201000803303618023DB00436120238361C5613A
:1020200000F028FF00280BD1094B23635C620022DB
:1020300001210C2000F08EFE0C2000F0BBFEBFE75B
:1020400000F0C4F8F0E7C046002401400010024050
:10205000AC0400200800024000B583B0094A516971
:10206000012319435161526913400193019B0022DE
:102070000021092000F06EFE092000F09BFE03B055
:1020800000BDC0460010024010B588B014220021E7
:1020900003A803F037FD134B59698020C0030143A7
:1020A00059615A6902400192019A5A698021890254
:1020B0000A435A615B690B400293029B0A4C00225F
:1020C0000321200001F0C0F903230393023B049392
:1020D00000230593069303A9200001F0F5F808B04A
:1020E00010BDC046001002400014004810B588B072
:1020F00004001422002103A803F004FD2268184BF9
:102100009A4201D008B010BD164C62698021890244
:102110000A43626163690B400193019BC023DB00AA
:10212000039312230493113B059302330693013367
:102130000793902003A9C00501F0C6F8E269802149
:1021400089030A43E261E3690B400293029B002288
:102150000021172000F0FEFD172000F02BFED1E734
:10216000005400400010024010B5154B154A1A608B
:10217000154A5A6098600122DA60802212021A61C0
:1021800000225A619A61DA611A62180001F0B8FA05
:1021900000280CD100210A4802F018F9002809D1C2
:1021A0000021074802F03EF9002806D110BD00F0DA
:1021B0000DF8EFE700F00AF8F2E700F007F8F5E7AE
:1021C000F0040020005400400E09002072B6FEE723
:1021D00010B598B0302200210CA803F093FC102415
:1021E0001022002107A803F08DFC1822002101A86D
:1021F00003F088FC32230B93313B0E93139310931F
:102200000F9411940BA802F09DF9002817D1072311
:102210000793043B0893002309930A93012107A81D
:1022200002F07CFC00280CD12023019300230493AE
:1022300001A802F015FD002805D118B010BDFFF768
:10224000C5FFFFF7C3FFFFF7C1FF10B502F014F998
:1022500000F07CFAFFF7BCFFFFF716FFFFF7FCFE6C
:10226000FFF766FE00F0DEF800F060F803F052F9C8
:10227000FEE7000082B00A4B99690122114399617F
:1022800099690A400092009ADA69802149050A4357
:10229000DA61DB690B400193019B02B07047C046D5
:1022A00000100240FEE7FEE77047704710B500F0EF
:1022B0005DFA10BD10B5024800F064FE10BDC046C6
:1022C000AC04002010B5024800F030FC10BDC04640
:1022D0006C04002010B5024802F04CFE10BDC04650
:1022E0004C05002010B5074B1B689A69E023DB0002
:1022F0001A4203D0034802F02BF810BD014801F048
:1023000069FBFAE7F00400200120704710B503F0E4
:102310007FFB162303600120404210BD10B5012150
:102320004942FFF7F3FFFEE77047000010B5094888
:10233000094B03602F23436000238360074AC26078
:102340000361836102F00EFF002800D110BDFFF78A
:102350003DFFFBE74C0500200020004087130000F4
:1023600082B00268074B9A4201D002B07047064A19
:10237000D16902231943D161D26913400193019BB2
:10238000F3E7C046000400400010024000B583B0EF
:1023900002680C4B9A4201D003B000BD0A4AD169D1
:1023A000802040000143D161D36903400193019B28
:1023B00000220321ED3800F0CDFC132000F0FAFCE0
:1023C000EAE7C046002000400010024010B586B089
:1023D00004001422002101A803F094FB22680F4B93
:1023E0009A4201D006B010BD0D4A5169802080028A
:1023F00001435161536903400093009BC023019343
:10240000BE3B029300230393049301330593902072
:1024100001A9C00500F058FFE4E7C04600040040F1
:102420000010024000B58BB00822002108A803F07C
:1024300069FB1C22002101A803F064FB1D481E4B10
:1024400003600023436083601C4AC26003618361B0
:1024500002F0B4FE002821D100230893099308A9B3
:10246000144803F013F800281BD1602301930023C4
:10247000029303930593002201A90E4802F00AFF7C
:10248000002811D1042201A90A4802F003FF002804
:102490000DD10848FFF79AFF0BB000BDFFF796FE7D
:1024A000DAE7FFF793FEE0E7FFF790FEEAE7FFF7D2
:1024B0008DFEEEE79405002000040040E7030000D5
:1024C000F0B5D6464F464646C0B50400081C161C5B
:1024D0006169FEF75FFB051CA169301CFEF75AFB22
:1024E0008146616A281CFEF755FB80466562E169FA
:1024F000281CFDF7CFFE071CE0612668311CFDF7A4
:10250000B5FE00283BD0E661216A4846FDF7C2FED1
:10251000071C2062011C301CFDF794FE00283CD0F3
:102520002662291C6068FEF71BFA051CE169E06859
:10253000FEF716FA011C281CFDF7ACFE051C216AEB
:10254000A068FEF70DFA011C281CFDF7A3FE051C70
:1025500041462069FEF704FA011C281CFDF79AFE8B
:10256000051CA062666D311CFDF780FE002820D09E
:10257000A662A06A1CBC90469946A246F0BD802384
:102580001B069C46B444E2466146381CFDF75AFEE1
:102590000028B9D05346E361B6E780231B069C466A
:1025A0006644311C381CFDF74DFE0028B9D0266268
:1025B000B7E780231B069C466644311C281CFDF7A8
:1025C00041FE0028D5D0A662D3E700004023C35CBB
:1025D000002B1BD000290CDB0F4B1A680023536320
:1025E0000B1CFA208000814200DD031C1BB29363A8
:1025F00011E0094B1B6800229A63084A914202DBF2
:102600004942596307E0FA218900FAE7024B1B6847
:1026100000229A635A6370479405002018FCFFFF5C
:1026200070B505000C1CFE218905201CFDF71EFE5F
:10263000002807D0FE24A4050649201CFEF790F9C7
:10264000686570BD0021201CFDF7FCFD0028F3D05B
:102650000024F1E700007A444023C1547047000091
:10266000014B185C7047C046E0050020014B19542F
:102670007047C046E005002010B58022D200024914
:10268000024803F0EDF910BD007C0008E0050020D1
:1026900030B585B0002300930193144B02930123BE
:1026A000039300F0F9FC002801D005B030BD104BB9
:1026B0003422DA60694601A800F0B4FD002811D187
:1026C0000A4C00250B4B9C420CD80B4BEB181A689C
:1026D0005B682100032000F02DFD002802D10834A2
:1026E0000835EFE700F0F0FCDFE7C046007C0008AB
:1026F00000200240FF7F0008E005002010B5040024
:102700000F4B1978FA208000FDF7FEFC01000D4BFD
:102710001868FDF7F9FC00F067FB00280DD1032CC9
:1027200001D901200AE0013000222100404200F0DE
:1027300011FB054B1C60002000E0012010BDC046CD
:1027400004000020000000200800002010B5064A08
:10275000136810210B4313600020FFF7CFFFFFF732
:1027600089FD002010BDC04600200240034A1168C8
:10277000034B1B785B1813607047C046E0090020CC
:1027800004000020014B18687047C046E009002093
:1027900070B50400FFF7F6FF0500631C02D0044B80
:1027A0001B78E418FFF7EEFF401BA042FAD370BD80
:1027B0000400002030B583B00400002301930368B7
:1027C000996803220A40012A0ED09968224A1142D0
:1027D00012D19A6801210A439A60204B1868204957
:1027E000FDF792FC019014E01A68D20731D4DA6840
:1027F0001204EAD500202AE0A36B10221343A3633E
:10280000E36B0F3A1343E363012020E0019B013B9C
:102810000193019B002BF9D1FFF7B4FF050023685A
:102820001B68DB0712D4FFF7ADFF401B0228F6D967
:1028300023681B68DB07F2D4A36B10221343A36346
:10284000E36B0F3A1343E363012000E0002003B081
:1028500030BD0020FBE7C0461700008000000020CC
:1028600040420F0070B5041E00D1B4E0836B002B12
:1028700000D180E0A36BDB0600D5A6E0226891685A
:10288000042005000D40084200D09EE0A16B534B90
:1028900019400633FF331943A163916801330B409C
:1028A000012B6ED0D36818218B43A1680B43D360F2
:1028B000226813699B009B0861680B4313612268BF
:1028C000D36847490B40D360237E9B03627ED203CB
:1028D0001343A17E4A031343A26A012A58D08022DF
:1028E00052011343E26813432269022A52D02B4358
:1028F0002422A25C52001343E27E012A4CD0E269FA
:10290000C221FF318A4202D0216A0A43134321685F
:10291000CA681A43CA60E26A802149058A420DD01A
:10292000012A0BD0022A09D0032A07D0042A05D095
:10293000052A03D0062A01D0072A0AD12068416956
:1029400007229143416120684169E56A2A400A43B0
:1029500042612268D26823490A409A422BD0A36B75
:1029600012229343023A1343A363E36B0F3A1343D8
:10297000E36301202EE0C36334228354FFF714FB8A
:1029800078E71368DB079AD4D3681B0497D489E7E8
:102990002A00A6E70425AAE7002903D180225202D3
:1029A0001343ACE7A26B20210A43A263E26B1F39F9
:1029B0000A43E263A3E70023E363A36B0322934389
:1029C000023A1343A363002004E0A36B10221343D5
:1029D000A363012070BD0120FCE7C046FDFEFFFFA0
:1029E0001902FEFFE7FF3F83F8B504000D00160053
:1029F00003689B685B073ED43423C35C012B3CD047
:102A000034230122C254437E012B04D0FFF7D2FEAF
:102A1000071E2ED100E00027A36B194A1A4080231D
:102A20005B001343A3630023E3633422A354236BAB
:102A3000144A9A62236B144ADA62236B134A1A63AC
:102A400023681C221A602268536810210B435360CC
:102A50002268D3680F390B43D360216840313300BB
:102A60002A00206B00F02EFA2268936804210B43A1
:102A700093603800F8BD0227FBE70227F9E7C0465C
:102A8000FEF0FFFF912A0008032B0008112B00081D
:102A900010B5436A9A6B502111422BD1996B802259
:102AA00092000A439A631A68D068C021090108425B
:102AB00013D1997E002910D1116809070DD59168AD
:102AC00049070ED451680C20814351609A6B0B4921
:102AD0000A400431FF310A439A63180002F0FCFDFA
:102AE00010BD9A6B20210A439A63DA6B1F390A439F
:102AF000DA63F2E71B6B1B6B9847F1E7FEFEFFFF03
:102B0000704710B5406AFFF7FBFF10BD7047704774
:102B100010B5406A836B402213438363C36B3C3A16
:102B20001343C363FFF7F3FF10BD000010B50400AB
:102B300003681A68520702D55A68520705D41A6802
:102B4000120729D55A68120726D5A26BD20604D4DB
:102B5000A16B802292000A43A263D968C0221201AD
:102B6000114213D1A27E002A10D11A6812070DD586
:102B70009A68520731D45A680C218A435A60A36B71
:102B8000204A13400432FF321343A363200002F0B3
:102B9000A3FD23680C221A6023681A68120602D566
:102BA0005B681B0622D423681A68D20614D55A68BB
:102BB000D20611D5A26A012A02D0DA68D20708D556
:102BC000E26B02210A43E26310221A602000FFF741
:102BD0009EFF236810221A6010BDA36B20221343AE
:102BE000A363E36B1F3A1343E363CFE7A26B802336
:102BF0005B021343A3632000FFF788FF2368802252
:102C00001A60D0E7FEFEFFFF30B583B0040000235A
:102C100001933433C35C012B00D18BE034230122B8
:102C2000C25403689A68520776D4434A486890426F
:102C300057D09A6A01200D68A84002439A62E36A5D
:102C40008022520593421ED0012B1CD0022B1AD099
:102C5000032B18D0042B16D0052B14D0062B12D022
:102C6000072B10D0226850690723034088689842D8
:102C700009D05069072398435061206842698D68E4
:102C80002B40134343610B681A00103A022A4DD8B7
:102C90002A4A1268102B0ED0112B09D080235B0416
:102CA0001343264A13600B68102B07D0002038E02E
:102CB0008023DB03F4E780231B04F1E7204B186833
:102CC0002049FDF721FA03008000C0184000019060
:102CD00002E0019B013B0193019B002BF9D10020F5
:102CE0001FE09A6A01200D68A84082439A620B682F
:102CF0001A00103A022A1BD8104A1268102B09D069
:102D0000112B05D0104B13400C4A1360002008E033
:102D10000E4BF8E70E4BF6E7836B202213438363D9
:102D2000012034230022E25403B030BD0020F8E734
:102D30000020F6E70220F7E7011000000827014015
:102D40000000002040420F00FFFFFFFEFFFFBFFF1B
:102D5000FFFF7FFF70B5002811DB8308134EC033DF
:102D60009B009D5903242040C000FF221400844092
:102D7000A54389010A4082402A439A5170BD0F231E
:102D80000340083B9B0806339B00094A9446634472
:102D90005C6803221040C000FC3215008540AC4343
:102DA00089010A40824022435A60E7E700E100E0DF
:102DB00000ED00E0002805DB1F2318401E3B834088
:102DC000014A13607047C04600E100E0BFF34F8F37
:102DD000034B044ADA60BFF34F8FC046FDE7C0469D
:102DE00000ED00E00400FA05013880235B049842FE
:102DF0000FD2094A50600948036A1B021B0AC0210E
:102E000009060B430362002393600733136000201D
:102E100070470120FCE7C04610E000E000ED00E054
:102E200070B5C56B0124066CB4406C6004686360C7
:102E30004368102B04D0036899600368DA6070BDA2
:102E400003689A600368D960F9E7000010B50400D0
:102E50000368064A9446634418001421FDF754F9A8
:102E600080002064024BE36310BDC046F8FFFDBF45
:102E70000000024070B5041E20D0212502234355D6
:102E800001680B680E4A1A40436880680343E06893
:102E900003432069034360690343A0690343E06976
:102EA000034313430B602000FFF7D0FF0023A3630D
:102EB000012262551F32A354002070BD0120FCE79F
:102EC0000FC0FFFF70B504002020205C012832D025
:102ED0002020012525540130205C012804D0202326
:102EE0000022E254022070BD20300135255400201C
:102EF000A063256828680126B04328602000FFF7FA
:102F00008FFFE36A002B0BD0226813680E210B435E
:102F100013602268136801210B4313600020E2E76D
:102F2000226813680A210B4313602268136806396C
:102F30008B431360EDE70220D5E710B52123C35C76
:102F4000022B03D004238363012010BD02681368A1
:102F50000E218B43136001680A6801239A430A60BB
:102F6000C26B1900046CA1405160212283541F33AD
:102F70000022C254436B002B02D098470020E4E7A4
:102F80000020E2E770B5C36B1A6804682568016C1D
:102F900004238B401A4212D06B0710D523689B067E
:102FA00003D42368042293432360C26B0423016C7F
:102FB0008B405360C36A002B00D0984770BD02233A
:102FC0008B401A4218D0AB0716D523689B0606D44F
:102FD00023680A22934323602123093AC254C26B17
:102FE0000223016C8B40536020230022C254836A69
:102FF000002BE3D09847E1E708238B401A42DDD04D
:103000002B07DBD523680E2293432360C26B012379
:103010001900046CA14051608363212283541F3343
:103020000022C254036B002BC8D09847C6E7212367
:10303000C05CC0B27047000010B5054B0022DA61D9
:10304000044A1369012423431361018010BDC04663
:10305000E8090020002002400D4BDA6810210B0027
:103060001340114205D00B4AD3690E390B43D3618B
:103070001023074AD268520706D50649CA690120BB
:103080000243CA6104221343014AD3607047C04619
:1030900000200240E8090020084B1B691B0609D5E7
:1030A000064B074A5A60074A5A601B691B0603D43D
:1030B000002000E0002070470120FCE700200240D3
:1030C00023016745AB89EFCD034A136980210B4388
:1030D000136100207047C0460020024070B5040014
:1030E000FFF750FB0500124BDB68DB070AD5631CBA
:1030F000F9D0002C04D0FFF745FB401BA042F2D9C9
:1031000003200FE00A4BDB689B0602D5084B202208
:10311000DA60074BDB68DB0605D4054BDB685B0731
:1031200001D4002070BDFFF797FF0120FAE7C046E9
:1031300000200240F8B5CE46474680B505000E0097
:1031400090461F00224B1B7E012B3ED0204B0122BC
:103150001A762048FFF7C2FF041E2FD1012D07D099
:10316000022D02D0042399461DE0022399461AE05D
:103170000123994617E02022D21A390091400A0013
:103180004146D940114389B28019FFF755FF1148D4
:10319000FFF7A4FF104A136901218B431361002834
:1031A0000CD10134E4B24C4508D260002301202246
:1031B00052429A18DFD43900D140E4E7044B002290
:1031C0001A760CBC90469946F8BD0220F9E7C04635
:1031D000E809002050C3000000200240064B0022F6
:1031E000DA61064B1A6904210A431A611A693C31F3
:1031F0000A431A617047C046E809002000200240D7
:10320000064B0022DA61064B1A6902210A431A6151
:1032100058611A693E310A431A617047E809002073
:103220000020024070B505000E00244B1B7E012BD0
:1032300041D0224B01221A760368012B22D020486C
:10324000FFF74CFF002831D101235B4233606C68EB
:103250000130AB689B026A6894466344A34226D956
:103260002000FFF7CDFF1648FFF738FF154A136916
:1032700002218B431361002816D18023DB009C467A
:103280006444E6E70E48FFF729FF002801D001203B
:103290000DE0FFF7A3FF0A48FFF720FF094A136973
:1032A00004218B43136102E0346000E00120034BF2
:1032B00000221A7670BD0220FCE7C046E809002013
:1032C00050C3000000200240F0B583B0002357E057
:1032D00084685F000326BE40B4432600CC68BC402F
:1032E00034438460446894434A681609012232409A
:1032F0009A402243426053E0DC080834A400265878
:1033000005321A4092000F279740BE430F6997403D
:103310003A003243225057E0022600E00026A64041
:1033200034003C4302329200424E9451424A1468A7
:10333000EA432600AE434F68FF0301D52C43260025
:103340003D4C26606468260016404F68BF0301D5D7
:103350002C432600384C6660A468260016404F684F
:10336000FF0201D52C432600334CA660E4682240BE
:103370004E68B60201D52A0022432F4CE260013389
:103380000C682200DA4052D001229A4025001540F4
:103390001442F4D003244E683440013C012C97D9E8
:1033A00003224C682240032A09D0C2685E0003242D
:1033B000B440A24314008A68B2402243C260032290
:1033C0004C682240022A97D004685E00032217004E
:1033D000B740BC434F683A40B24022430260C0222B
:1033E00092024C681442CAD0144CA66901221643BA
:1033F000A661A46922400192019A9A08941CA40033
:103400000C4EA75903241C40A4000F26A640B74326
:103410009026F605B04281D0094EB04205D0094E43
:10342000B04200D178E7052679E7012677E703B0B7
:10343000F0BDC04600000140000401400010024001
:103440000004004800080048002A01D0816170474C
:103450008162FCE703689A69920701D500229A62AB
:1034600003689A69D20703D49A6901210A439A61D1
:1034700070470000F0B5059C05686868660D8027F8
:10348000FF003740054E3E43B0438905890D1204C5
:1034900011431943214301436960F0BDFF63FF03FA
:1034A000436B194A934213D0184A934210D00BB27F
:1034B000002B27DB0023CA0701D5F22213438A071A
:1034C00001D5F422134320290CD12022134309E013
:1034D0000BB2002B0BDB002310290AD020290BD0C4
:1034E00040290CD001680A6813430B607047B82369
:1034F000F2E790221343F1E760221343F0E7402202
:103500001343EFE7B823D6E715420008E940000867
:1035100030B5CB0709D54123C35C28221340282BA3
:1035200001D0F22302E01A3300E000238A0709D514
:1035300044241C434122825C28252A40282A0FD09B
:10354000F42213430AB2002A0CDB10290DD02029E3
:103550000ED040290FD001680A689A430A6030BD36
:103560002300EFE7B8221343EFE790221343EEE77F
:1035700020221343EDE740221343ECE7F8B50500A2
:103580000F00160003689A69D2063BD55A6892016B
:1035900004D459688022D2010A435A602B689C697E
:1035A000A20615D47B1CF9D0FFF7ECF8801BB842BB
:1035B00001D8002FF2D16B6C202213436B6441239E
:1035C000EA5400232232AB54023AAB5401201AE0F1
:1035D0001022DA612B682024DC612800FFF73AFF13
:1035E0002A68536808490B4053606B6C04221343EC
:1035F0006B644123EC5400233E32AB54023AAB548B
:10360000012000E00020F8BD00E800FE70B50400D5
:103610000D00160023689B699B071CD4320029000B
:103620002000FFF7ABFF002817D16B1CF2D0FFF78B
:10363000A9F8801BA84201D8002DEBD1636C202291
:10364000134363644123E25400232232A354023A19
:10365000A354012000E0002070BD0120FCE7F0B57C
:10366000C64600B507000D0090461E003B689C69E9
:103670002C40641B63425C41444516D1731CF5D059
:10368000FFF780F8069BC01AB04201D8002EEDD19A
:103690007B6C202213437B644123FA5400232232A3
:1036A000BB54023ABB54012000E0002004BC904609
:1036B000F0BD70B505000C0016002B689B699B06D9
:1036C0001AD4320021002800FFF758FF002815D136
:1036D000FFF758F8801BA04201D8002CEDD16B6C8D
:1036E000202213436B644123EA5400232232AB545B
:1036F000023AAB54012070BD0020FCE70120FAE73C
:1037000010B5041E59D04123C35C002B43D0412384
:103710002422E2542268136801218B43136022683B
:10372000274B61680B4013612268936825490B4061
:103730009360E368012B34D0226884231B02A168C4
:103740000B439360E368022B32D0226851681E4B12
:103750000B4353602268D3681A490B40D360236936
:1037600062691343A269120221681343CB60226885
:10377000E369216A0B4313602268136801210B433C
:1037800013600023636441221F31A154236301327B
:10379000A354002010BD40330022C254FEF7A6FC03
:1037A000B5E7226880231B02A1680B439360C9E739
:1037B0002368802212015A60C7E70120EAE7C04669
:1037C000FFFFFFF0FF7FFFFF00800002F0B5C6465D
:1037D00000B582B004000F0090461D004123C35C79
:1037E000202B00D0B7E000294DD0002A4BD0402339
:1037F000C35C012B00D1B3E040230122C254FEF789
:10380000C1FF060041232122E2540133013AE25470
:10381000002363646762424662856363226853687B
:1038200051490B40536000902B00002208212000DA
:10383000FFF715FF00282BD123680822DA61E3681F
:10384000022B2DD0802100962B000022490220005F
:10385000FFF705FF002838D1638D9BB2002B44D0C1
:10386000320029002000FFF7D1FE002835D123685F
:10387000626A12789A62636A01336362628D013A06
:1038800092B26285E8E780239B006364012063E0D5
:103890002268516880231B020B43536001205BE0C8
:1038A00000962B00002208212000FFF7D8FE0028F8
:1038B00003D123680822DA61C4E7226851688023B3
:1038C0001B020B435360012046E0226851688023AD
:1038D0001B020B43536001203EE0226851688023A5
:1038E0001B020B435360012036E032002900200008
:1038F000FFF7DFFE00280AD02268516880231B02F0
:103900000B435360636C042B2CD100236364236846
:103910002022DA61802100962B001F3A0902200044
:10392000FFF79DFE002807D02268516880231B0204
:103930000B43536001200FE02268516880231B0273
:103940000B43536041232022E25400232232A3542C
:10395000023AA35400E0022002B004BC9046F0BD3D
:103960000220F9E70120F7E7FF7FFFFFF8B54123C9
:10397000C35C202B21D12033C35C012B1FD04024FA
:103980000123035540332225C5540133023DC5545C
:1039900000254564066873680A4F3B4073604162C6
:1039A0004285438D0385084BC362084B436305552D
:1039B0000749FFF775FD0020F8BD0220FCE7022053
:1039C000FAE7C046FF7FFFFF0000FFFF853E0008CB
:1039D0000280000010B5036899691A68436B002BD8
:1039E00000D0984710BD7047704770B5040042235F
:1039F0000022C254013BC35C212B0FD04123202263
:103A0000C2542F3B0363002545630221FFF780FD6D
:103A10004023E5542000FFF7E7FF70BD203320323C
:103A2000C254303B0363002545630121FFF770FD5D
:103A30004023E5542000FFF7D6FFEEE77047000073
:103A400010B5040003681A68422100206054510434
:103A50000CD51A6819490A401A604123E35C292BE6
:103A60000BD04123E35C2A2B17D010BD1204F4D5F0
:103A70001A6813490A401A60EFE718332822E25403
:103A8000203B236301212000FFF742FD4023002259
:103A9000E2542000FFF7D2FFE7E717332822E25471
:103AA0001F3B236302212000FFF732FD4023002249
:103AB000E254200001F012FED7E7C046FFBFFFFF2F
:103AC000FF7FFFFF7047F8B504004123C35C282245
:103AD0001340282B06D003680822DA614023002215
:103AE000C254F8BD03689E69360C273A16409A699D
:103AF000120CFE273A4015009A689205920DD8687C
:103B00000740E168022923D1D00945400431294208
:103B100010D1A16C0131A164A16C0229E1D1002175
:103B2000A1640820D8614023E15431002000FFF750
:103B3000C9FFD6E7802109022000FFF7E9FC4023F6
:103B40000022E2543A0031002000FFF7BBFFC8E733
:103B5000802109022000FFF7DBFC40230022E25411
:103B60002A0031002000FFF7ADFFBAE770470000E0
:103B700010B50400164BC3620023036341222020CA
:103B8000A0540132A35463634B0713D523685B6AC7
:103B9000626A1370636A01336362238D002B09D05C
:103BA000013B2385638D013B9BB26385636C0422DB
:103BB0001343636407492000FFF7AAFC236810221F
:103BC000DA6140230022E2542000FFF7CFFF10BD4E
:103BD0000000FFFF03800000704770477047704788
:103BE00010B54123C35C602B06D000230363402241
:103BF0008354FFF7F3FF10BD1F3B2022C254002364
:103C0000036320328354FFF7EAFFF4E710B50400A2
:103C10004123C35C00204222A0543A4AE2626085FC
:103C2000626C0A436264283BDBB2022B1BD803217F
:103C30002000FFF76DFC41232822E254324B6363DE
:103C4000236BA26B002A03D0112B1AD0212B18D082
:103C5000E26B002A03D0122B33D0222B31D020006C
:103C6000FFF7BEFF10BD29492000FFF751FC41239B
:103C7000E35C602B02D041232022E25400236363E3
:103C8000DEE723681A68520403D51A6820490A40FF
:103C90001A60A06BFFF7CBF901280ED0A36B1D4A69
:103CA0005A6340230022E254A06BFFF746F9002834
:103CB000D8D0A06B436B9847D4E72000FFF790FF64
:103CC000D0E723681A68120403D51A6812490A401B
:103CD0001A60E06BFFF7ABF901280ED0E36B0D4AD9
:103CE0005A6340230022E254E06BFFF726F90028D4
:103CF000B8D0E06B436B9847B4E72000FFF770FF44
:103D0000B0E7C0460000FFFF853E000803800000CA
:103D1000FFBFFFFFAF430008FF7FFFFF70B5040048
:103D20000D00026816684123C35CD9B22020D0611F
:103D3000212B0CD029290AD0222901D02A290CD1E3
:103D40004A492000FFF7E4FB2223236305E04849AA
:103D50002000FFF7DDFB21232363226851688023C5
:103D60001B020B4353602268536842490B40536067
:103D70002000FFF76FFB730441D5226813683E49AA
:103D80000B401360A36B002B03D01B685B689BB2D6
:103D900063856B0711D504239D4323685B6A626AC0
:103DA0001370636A01336362238D002B05D0013BDE
:103DB0002385638D013B9BB26385638D9BB2002B92
:103DC00003D0636C04221343636400234222A35490
:103DD0006363636C002B21D1E26A284B9A422AD19B
:103DE0004123E35C222B36D041232022E2540023DE
:103DF00023632032A3542000FFF720FE2AE033047F
:103E0000C7D5226813681E490B401360E36B002B73
:103E1000BFD01B685B689BB26385BAE7616C20000A
:103E2000FFF7F4FE4123E35C282B13D12900200087
:103E3000FFF79EFE0EE02000FFF702FE0F4BE3624D
:103E400041232022E254002323632032A354200084
:103E5000FFF78CFE70BD1F332022E2540023236342
:103E60002032A354200001F039FCF3E70280000067
:103E70000180000000E800FEFFBFFFFF0000FFFF21
:103E8000FF7FFFFFF8B504000D001600C76A40234E
:103E9000C35C012B00D196E00123402283544A09E0
:103EA000134201D0B30617D4EB0640D5F3063ED536
:103EB000638D9BB2002B28D14133E35C282B0ED0BD
:103EC0004123E35C292B13D023681022DA614023BD
:103ED0000022E2540020F8BDFFF720FFE4E7802332
:103EE0009B049F42ECD129002000FFF741FEEEE742
:103EF000364B9F42E8D023681022DA612000FFF79A
:103F0000A9FA2000FFF79CFDE1E723681022DA619F
:103F1000636C0C3A13436364002F03D080235B046B
:103F20009F42D4D1616C2000FFF770FECFE76B0792
:103F30001ED573071CD5638D9BB2002B0DD0236853
:103F40005B6A626A1370636A01336362238D013BAB
:103F50002385638D013B9BB26385638D9BB2002BF0
:103F6000B5D11A4B9F42B2D02000FFF769FDAEE7F2
:103F70002B0701D5330716D4AB07A8D5B307A6D5B1
:103F8000638D9BB2002B13D02368626A12789A6209
:103F9000636A01336362638D013B9BB26385238D4A
:103FA000013B238593E729002000FFF78CFD8EE776
:103FB00080235B049F4202D0002F00D087E72000BF
:103FC000FFF73EFD83E7022085E7C0460000FFFFC4
:103FD00030B583B004000D0003682022DA6141236C
:103FE000C35C212B29D04123C35C222B2BD0226818
:103FF00053683B490B40536000236363394BE362D2
:10400000EB0606D523681022DA61636C0C3A134381
:1040100063644123E35C602B1BD02000FFF71AFA96
:10402000626C4123E35C602B01D0002A1AD0616CE2
:104030002000FFF7EBFD03B030BD0121FFF768FA68
:1040400011232363D3E70221FFF762FA12232363CC
:10405000CDE76B07E1D523685A6AFF23134001932C
:10406000019BDAE74123E35C212B15D04123E35C7C
:10407000222BE0D11F332022E2540023236342335A
:10408000E35C402B23D000234222A354023AA354E2
:104090002000FFF7A9FCCEE720332022E2540023C2
:1040A00023634233E35C402B08D000234222A35415
:1040B000023AA3542000FFF796FCBCE7002322320B
:1040C000A354023AA3542000FFF786FDB3E7002370
:1040D0002232A354023AA3542000FFF77EFDAAE740
:1040E00000E800FE0000FFFFF8B504000D00160018
:1040F000C76A4023C35C012B00D187E00123402223
:1041000083544A09134201D0B30616D4EB066FD587
:10411000F3066DD5B30B0122110019401A4201D1EB
:10412000330461D5E36B002B0AD032040AD51B6837
:104130005B68002B2DD0002205E0FFF7EFFDE5E7DF
:10414000002200E00022A36B002B05D0002903D041
:104150001B685B68002B1ED0012A1CD0236810222C
:10416000DA61636C0C3A134363644123E35CDBB2B2
:10417000002F03D08022520497423DD1212B2CD016
:10418000292B2AD0222B01D02A2B28D122232363AA
:1041900025E00122D7E74123E35C282B07D0412308
:1041A000E35C292B0CD023681022DA6124E0802301
:1041B0009B049F42F3D129002000FFF7D9FC1BE0AC
:1041C000134B9F42EFD023681022DA612000FFF7E3
:1041D00041F92000FFF734FC0EE021232363616CDA
:1041E0002000FFF713FD07E023681022DA6103E0E7
:1041F0002B0701D5330704D440230022E2540020CA
:10420000F8BD29002000FFF75EFCF5E70220F7E784
:104210000000FFFF10B582B004004023C35C012BF7
:1042200000D191E00123402023540809034201D02A
:10423000D3062FD40B0660D553065ED522681368CB
:1042400040218B431360638D9BB2002B48D02368C1
:1042500059688905890D638D9BB2FF2B2ED9FF23E9
:10426000238580235B04228DD2B2002000902000A1
:10427000FFF700F9638D228D9B1A9BB26385412362
:10428000E35C222B25D0226811688023DB010B43DD
:1042900013600DE023681022DA61636C0C3A13435B
:1042A000636420212000FFF7FBF82000FFF7D2F81D
:1042B00040230022E254002002B010BD638D23850C
:1042C000E26A224B9A4201D0E36ACCE780239B0446
:1042D000C9E72268116880231B020B431360E7E7DC
:1042E00023685B689B0103D42000FFF77EFBDFE7B8
:1042F00040212000FFF78AFCDAE74B061CD5530665
:104300001AD5638D9BB2002B11D123685A68920194
:10431000CED4E16A0D4A914205D159688022D2017A
:104320000A435A60C4E72000FFF75FFBC0E7402163
:104330002000FFF76BFCBBE78B06B9D59306B7D51A
:104340002000FFF745FEB3E70220B5E70000FFFFBE
:1043500070B5026893691168DC0508D50C0606D5AE
:10436000446C01252C43446480246400D4615A05C4
:1043700009D50A0607D5426C082422434264026824
:104380008024E400D4619B0509D50B0607D5436C56
:104390000222134343640368FF32FF32DA61416C47
:1043A0000B230B4200D170BDFFF730FCFBE710B5CB
:1043B000406A836B002B01D000225A63C36B002B31
:1043C00001D000225A63FFF70BFC10BDF0B541236A
:1043D000C35C202B20D12033C35C012B1ED0402492
:1043E000012202554125242343550668336893432F
:1043F0003360066833680A4F3B40336006683368B1
:104400001943316001680B6813430B602023435547
:10441000002303550020F0BD0220FCE70220FAE74C
:10442000FFEFFFFFF0B54123C35C202B1ED12033EB
:10443000C35C012B1CD040240122025541252423BA
:104440004355066833689343336006683368094F01
:104450003B4009021943316001680B6813430B604C
:1044600020234355002303550020F0BD0220FCE724
:104470000220FAE7FFF0FFFF70B5FEF783F90400B2
:10448000284A136881210B431360264B1B689B0746
:1044900007D4FEF777F9001B0228F6D90324200081
:1044A00070BD204A536820490B4053601D4B5B6828
:1044B0000C221A4207D0FEF765F9001B1B4B9842ED
:1044C000F4D90324EBE71A4B1A4A1A601A4B1868FE
:1044D000FEF714F9041E01D00124E0E7114B1A681D
:1044E00016490A401A601A6815490A401A60FEF710
:1044F00049F905000B4B1B689B0106D5FEF742F9F5
:10450000401B0228F6D90324C9E7064B00225A6053
:10451000DA621A639A60596A802252040A435A6224
:10452000BDE7C046001002400CF8FFF08813000001
:104530000000002000127A0008000020FFFFF6FEB5
:10454000FFFFFBFF70B582B0041E00D17FE203685D
:10455000DB072BD5B34B5A680C231340042B1DD01B
:10456000B04B5A680C231340082B0ED06368012B04
:1045700041D0002B56D1AB4B1A68AB490A401A60A8
:104580001A68AA490A401A603BE0A64B5B68C02241
:1045900052021340802252029342E7D1A14B1B6882
:1045A0009B0303D56368002B00D153E223689B076C
:1045B00077D59C4B5B680C221A4262D0994B5A68A3
:1045C0000C231340082B53D0E368002B00D18AE062
:1045D000944A136801210B431360FEF7D3F80500DA
:1045E000904B1B689B0775D4FEF7CCF8401B022844
:1045F000F6D903202CE28B4A116880235B020B431F
:1046000013606368002B25D0FEF7BCF80500854BCE
:104610001B689B03CAD4FEF7B5F8401B6428F6D983
:10462000032015E2052B09D07E4B1A687E490A400B
:104630001A601A687D490A401A60E2E7794B1968E6
:104640008022D2020A431A601968802252020A4369
:104650001A60D6E7FEF796F80500724B1B689B03BD
:10466000A4D5FEF78FF8401B6428F6D90320EFE1AC
:104670006C4B5B68C02252021340802212029342AC
:10468000A2D1684B1B689B0703D5E368012B00D0C0
:10469000E2E164490B68F82293432269D200134394
:1046A0000B6023681B0744D5E369002B2ED05D4ABD
:1046B000536A01210B435362FEF764F80500594B1E
:1046C0005B6A9B0735D4FEF75DF8401B0228F6D9DC
:1046D0000320BDE153490B68F82293432269D200BD
:1046E00013430B60DDE74F4A136801218B431360CE
:1046F000FEF748F805004B4B1B689B07D1D5FEF72A
:1047000041F8401B0228F6D90320A1E1454A536A2B
:1047100001218B435362FEF735F80500414B5B6A7C
:104720009B0706D5FEF72EF8401B0228F6D903207A
:104730008EE123685B0700D480E03A4BDB69DB0045
:104740001DD4384AD169802040050143D161D36925
:1047500003400193019B0125354B1B68DB0510D5F8
:10476000A368012B21D0002B36D12E4B1A6A0121D0
:104770008A431A621A6A03318A431A621AE00025D0
:10478000EAE72B4A116880235B000B431360FDF7B7
:10479000F9FF0600264B1B68DB05E1D4FDF7F2FFAD
:1047A000801B6428F6D9032052E11E4A136A0121B6
:1047B0000B431362A368002B24D0FDF7E3FF060030
:1047C000184B1B6A9B0737D4FDF7DCFF801B194B86
:1047D0009842F5D903203BE1052B09D0114B1A6A09
:1047E00001218A431A621A6A03318A431A62E1E795
:1047F0000C4B1A6A04210A431A621A6A03390A43E3
:104800001A62D7E7FDF7BEFF0600064B1B6A9B073F
:1048100012D5FDF7B7FF801B064B9842F5D9032050
:1048200016E1C04600100240FFFFFEFFFFFFFBFF46
:104830000070004088130000012D39D02368DB068A
:1048400010D56369012B39D0053357D1894A536B91
:1048500004218B435363536BF4318B43A169C9002B
:104860000B43536323689B066ED5824B5A680C2317
:1048700013400C2B60D07F4B5A680C231340082B3D
:1048800053D0236A002B7ED07A4A516B80235B027F
:104890000B435363FDF776FF0500764B5B6BDB0341
:1048A00052D4FDF76FFF401B0228F6D90320CFE05A
:1048B000704AD36970490B40D361BFE76D4B5A6BA7
:1048C00004210A435A635A6B03390A435A63FDF7BA
:1048D00059FF0500674B5B6B9B0706D4FDF752FF42
:1048E000401B0228F6D90320B2E062494B6BF82244
:1048F0009343A269D20013434B63B3E75D4B5A6BFA
:1049000004210A435A635A6B03398A435A63FDF7F9
:1049100039FF0500574B5B6B9B07A3D5FDF732FFB3
:10492000401B0228F6D9032092E0524B5B68C0225C
:10493000520213409342A4D14E4B5B6BDB0303D571
:10494000236A012B00D089E0636A002B00D187E045
:10495000484A51680C220A40082A60D0022B25D010
:10496000444A136845490B401360FDF70BFF0400F0
:10497000404B1B689B0150D5FDF704FF001B02282C
:10498000F6D9032064E03B4A536B3D490B40536327
:10499000FDF7F8FE0500374B5B6BDB03D4D5FDF765
:1049A000F1FE401B0228F6D9032051E0314A13687A
:1049B00032490B401360FDF7E5FE05002D4B1B68E7
:1049C0009B0106D5FDF7DEFE401B0228F6D9032029
:1049D0003EE0284BDA6A0F218A43216B0A43DA62F0
:1049E0005A6828490A40E16AA06A01430A435A60AA
:1049F0001968802252040A431A60FDF7C3FE0400BE
:104A00001C4B1B689B0106D4FDF7BCFE001B022853
:104A1000F6D903201CE000201AE0002018E0012B4A
:104A200020D0144B5A68D96AC0235B021340A06A95
:104A3000834219D10F230B40216B8B4216D1F023F7
:104A40009B031A40E36A9A4212D1002000E0012041
:104A500002B070BD0120FBE70120F9E70120F7E774
:104A60000020F5E70120F3E70120F1E70120EFE75F
:104A70000120EDE700100240FFFFFFEFFFFFFFFE08
:104A8000FFFFFEFFFF7FC2FF10B588B004AA1E4BD8
:104A900013CB13C21B6813606A461C4B13CB13C2A3
:104AA0001B6813601A4B5A680C231340082B04D060
:104AB0000C2B26D1174808B010BD910C0F231940BC
:104AC00004A8445C1249C96A0B406946C95CC0230A
:104AD0005B021A4080235B029A4208D0C0235B022B
:104AE0009A4209D00C48FBF70FFB6043E3E70A4802
:104AF000FBF70AFB6043DEE70648FBF705FB604374
:104B0000D9E70548D7E7C046685E00087C5E000824
:104B100000100240006CDC0200127A0070B5040044
:104B20000D00002800D186E0474B1A68012313408E
:104B30008B420AD244490B68012293432B430B60FA
:104B40000B681A40AA4200D077E023689A070ED576
:104B50005B0705D53D4A5168E023DB000B435360FA
:104B60003A4A5368F0218B43A1680B435360236892
:104B7000DB0735D56368012B09D0022B24D0032B2A
:104B800028D0324A1268920705D4012052E02F4AF9
:104B90001268920353D52D494A6803208243134378
:104BA0004B60FDF7EFFD0600284B5B680C221A40B6
:104BB00063689B009A4213D0FDF7E4FD801B244BF1
:104BC0009842F1D9032035E0204A12689201E2D4DC
:104BD00001202FE01D4A526BD203DCD4012029E0D2
:104BE000194B1A6801231340AB4209D916490B68C7
:104BF000012293432B430B600B681A40AA4220D139
:104C000023685B0706D5114A536812490B40E168D7
:104C10000B435360FFF738FF0C4B5A6812090F2300
:104C200013400D4AD35CD8400C4B18600020FDF7B0
:104C300065FD002070BD0120FCE70120FAE701209E
:104C4000F8E70120F6E7C0460020024000100240CD
:104C500088130000FFF8FFFF585E000800000020E6
:104C600070B582B004000368DB0337D5474BDB69BE
:104C7000DB005DD4454AD169802040050143D16104
:104C8000D36903400193019B0125414B1B68DB0560
:104C900050D53E4B1A6AC0239B00110019401A429E
:104CA00013D0626813408B420FD0384B186A394AD0
:104CB00002401E6A8021490231431962196A364E48
:104CC000314019621A62C30748D4304A136A314925
:104CD0000B4061680B431362012D4ED02368DB0744
:104CE00006D52A4A136B03218B43A1680B43136338
:104CF00023689B0606D5254A136B10218B43E16878
:104D00000B43136323689B0306D5204A136B802152
:104D10008B4361690B43136323685B0532D51B4AE0
:104D2000136B40218B4321690B43136300202AE05E
:104D30000025AAE7164A116880235B000B43136025
:104D4000FDF720FD0600124B1B68DB05A1D4FDF723
:104D500019FD801B6428F6D9032014E0FDF712FD2D
:104D600006000A4B1B6A9B07AFD4FDF70BFD801BA7
:104D70000A4B9842F5D9032005E0D36908490B4056
:104D8000D361ABE7002002B070BDC0460010024006
:104D900000700040FFFCFFFFFFFFFEFF88130000D4
:104DA000FFFFFFEF30B5036A012293430362036AFA
:104DB000426884697325AC430D682C430225AB43DC
:104DC0008D682B43114DA84205D0114DA84202D049
:104DD000104DA84205D10825AB43CD682B430425CF
:104DE000AB430A4DA84205D0094DA84202D0094D57
:104DF000A84205D1084D2A404D692A438D692A43AE
:104E0000426084614A684263036230BD002C014005
:104E10000044014000480140FFFCFFFF70B5036AF9
:104E2000184A13400362036A4468C2697325AA439F
:104E30000E681643144A13408A6812021343134A39
:104E4000904216D0114A904205D0114A904202D0A9
:104E5000104A904207D1104A22404C692401144361
:104E60008A6915012C434460C6614A68C2630362C3
:104E700070BD0A4A1A40CB681B021343084A13400C
:104E8000E0E7C046FFFEFFFFFFFDFFFF002C0140F3
:104E90000044014000480140FFCFFFFFFFF7FFFF44
:104EA000FFFBFFFF30B5036A114A13400362036A38
:104EB0004568C2690F4C22400C68240222430E4C04
:104EC0001C408B681B0323430C4CA04205D00C4CA8
:104ED000A04202D00B4CA04204D10B4C25404C699F
:104EE000A40125434560C2614A680264036230BD83
:104EF000FFEFFFFFFF8CFFFFFFDFFFFF002C0140F4
:104F00000044014000480140FFBFFFFF3D23C35C58
:104F1000012B23D13C330222C2540268D368012101
:104F20000B43D36003680F4A93420CD08022D20512
:104F3000934208D00C4A934205D01A6801210A43D3
:104F40001A6000200BE0996807220A40062A07D061
:104F50001A6801210A431A60002000E0012070470E
:104F60000020FCE7002C014000040040704770471F
:104F70007047704710B5040003681A6992070FD58F
:104F8000DA6892070CD5032252421A610123037793
:104F900003689B699B0763D0FFF7E9FF0023237732
:104FA00023681A69520712D5DA6852070FD505220D
:104FB00052421A610223237723689A69C0239B0017
:104FC0001A4253D02000FFF7D2FF00232377236833
:104FD0001A69120710D5DA6812070DD50922524254
:104FE0001A61042323772368DB699B0745D02000DF
:104FF000FFF7BDFF0023237723681A69D20612D575
:10500000DA68D2060FD5112252421A61082323779B
:105010002368DA69C0239B001A4235D02000FFF7CD
:10502000A6FF0023237723681A69D20702D5DA681E
:10503000D20730D423681A69120602D5DA6812063C
:1050400030D423681A69520602D5DA68520630D481
:1050500023681A69920602D5DA68920630D410BD28
:10506000FFF784FF2000FFF783FF97E72000FFF79B
:105070007DFF2000FFF77CFFA7E72000FFF776FF0A
:105080002000FFF775FFB5E72000FFF76FFF200056
:10509000FFF76EFFC5E7022252421A61200000F0BE
:1050A00019FCC7E7812252421A61200000F021FA60
:1050B000C7E7412252421A612000FFF75AFFC7E7B3
:1050C000212252421A61200000F012FAC7E70000C4
:1050D00003681E4A904206D08022D205904202D038
:1050E0001B4A904203D1702293434A681343174AE4
:1050F00090420FD08022D20590420BD0144A9042A9
:1051000008D0144A904205D0134A904202D0134A64
:10511000904203D1124A1340CA681343802293433A
:105120004A69134303608B68C3620B688362074B51
:10513000984205D0084B984202D0084B984201D1C2
:105140000B690363012343617047C046002C014093
:10515000000400400020004000440140004801409D
:10516000FFFCFFFF70B5041E26D03D23C35C002B5F
:105170001CD03D2502236355210001C9FFF7A8FF7C
:1051800001234622A354083AA3540132A354013206
:10519000A3540132A3540132A3540132A354013267
:1051A000A3540132A3546355002070BD3C33002248
:1051B000C254FDF7EBF8DCE70120F6E770B5041EFA
:1051C00026D03D23C35C002B1CD03D250223635514
:1051D000210001C9FFF77CFF01234622A354083AAE
:1051E000A3540132A3540132A3540132A354013217
:1051F000A3540132A3540132A3540132A354635582
:10520000002070BD3C330022C254FDF7A9F8DCE752
:105210000120F6E730B5036A102293430362036A64
:1052200045688469164A14400A6812021443202211
:1052300093438A6812011343124A904216D0114ACE
:10524000904205D0104A904202D0104A904207D1B5
:105250000F4A2A404D69AD0015438A6992001543F3
:10526000456084614A688263036230BD8022934353
:105270001A00CB681B01134340229343DFE7C0466B
:10528000FF8CFFFF002C014000440140004801401A
:10529000FFF3FFFF70B504000D003C23C35C012B3E
:1052A00000D16AE03C230121C154082A50D01CD807
:1052B000002A38D0042A16D129000068FFF7AAFF77
:1052C0002268916980231B010B43936122689369D3
:1052D0002B490B40936121688B692A6912021343A1
:1052E0008B6100201BE0080019E00C2A16D1290070
:1052F0000068FFF7D7FD2268D16980231B010B43AB
:10530000D3612268D3691E490B40D3612168CB6900
:105310002A6912021343CB61002000E001203C23E4
:105320000022E25470BD29000068FFF73BFD2268AF
:10533000936908210B4393612268936904398B4375
:1053400093612268936929690B4393610020E6E722
:1053500029000068FFF762FD2268D36908210B432A
:10536000D3612268D36904398B43D3612268D3693E
:1053700029690B43D3610020D1E70220D2E7C04660
:10538000FFFBFFFF10B51F23194001248C40036A67
:10539000A3430362036A8A401343036210BD000003
:1053A00010B50400002930D13E23C35C013B5A1ED6
:1053B0009341DBB2002B5CD100293FD13E33022266
:1053C000E25401222068FFF7DDFF23682B4A934255
:1053D00005D02B4A934202D02A4A934204D1596CF9
:1053E000802212020A435A642368244A934235D029
:1053F0008022D205934231D0234A93422ED01A689C
:1054000001210A431A60002034E0042908D0082949
:105410000DD04123C35C013B5A1E9341DBB2C9E767
:105420003F23C35C013B5A1E9341DBB2C2E74023DA
:10543000C35C013B5A1E9341DBB2BBE7042905D094
:10544000082907D041230222E254BAE73F2302226F
:10545000E254B6E740230222E254B2E799680722F9
:105460000A40062A07D01A6801210A431A60002060
:1054700000E0012010BD0020FCE7C046002C0140E8
:1054800000440140004801400004004030B53C2386
:10549000C35C012B25D03C230122C25401330132CD
:1054A000C25403685A689C687025AA430D682A4351
:1054B0005A6003680C4A934206D08022D205934278
:1054C00002D00A4A934204D1802294434A6814438A
:1054D0009C603D230122C254013B0022C2540020A3
:1054E00030BD0220FCE7C046002C01400004004013
:1054F00070477047012800D07047034B9942FBD199
:10550000024B034A1A60F7E7FFFF0000380A002049
:105510000000FA43F0B583B001AB01229A70FDF7A9
:10552000ABF801AB01221A703026644D0024002E26
:1055300009D02000FDF794F82870013EB6B201347E
:10554000A4B20135F3E75D4B1B78012B38D15B4CDE
:105550005B4DA1682800FDF763F86369AB63A3693D
:10556000EB63238AAB85638AEB85E3696B60636ACF
:10557000EB60236AAB60A36A2B6163686B612C23C9
:10558000E15C2800FDF768F84E4D00212800FFF788
:1055900007FF04212800FFF703FF2B6800225A634E
:1055A0009A636078FCF7E0FD0A20FDF7F1F8052228
:1055B00045494648FEF7DAF94548FFF7A7FC4FE0B2
:1055C0003E49444B0A0013CB13C213CB13C213CB77
:1055D00013C213CB13C201AB1B78002B03D03500D1
:1055E0003024364B0FE0FDF747F801AB01221A706B
:1055F000F5E75F1C19782800FDF738F8013CA4B2E4
:105600000135ADB23B00002CF3D101AB9B78002BF0
:105610009DD0FDF73DF89AE7284B01221A7001ABA7
:105620001B78002B03D035003024244B0FE0FDF70E
:1056300023F801AB01221A70F5E75F1C19782800E6
:10564000FDF714F8013CA4B20135ADB23B00002CCB
:10565000F3D101AB9B78002B10D10A20FDF798F80D
:10566000164B1B78022BD7D0002BF6D101AB1B7841
:10567000002B06D035003024104B12E0FDF708F85F
:10568000EBE7FCF7F9FF01AB01221A70F2E75F1CB0
:1056900019782800FCF7EAFF013CA4B20135ADB24D
:1056A0003B00002CF3D101AB9B78002B02D1FDF71E
:1056B0008DFBD2E7FCF7ECFFF9E7C046080A0020B3
:1056C000380A0020940500203C050020F00400204A
:1056D0004C050020685D00087047000010B5764B4F
:1056E00059789A7812021143DA7812040A43197928
:1056F000090611430C001B78704A1370272B07D83A
:10570000002B0FD0272B0DD89B006D4AD3589F46F6
:10571000FF2B07D1684B59784B1E9941C9B2694894
:10572000FCF79AFF684B052264496848FEF74EF87B
:105730000028F7D1052260496448FEF717F90028D0
:10574000F8D110BD5F4B59610022032AEADC5D4BA2
:1057500030339B1801321978584B9954F5E7594B5F
:1057600099610022032ADDDC564B34339B18013249
:105770001978524B9954F5E75248FCF751FF002233
:10578000032ACFDC4F4B30339B18013219784B4B37
:105790009954F5E70023032BC4DC4A4A3032D2186F
:1057A00001331178454AD154F5E70023032BB9DCC6
:1057B000444A3432D21801331178404AD154F5E7C3
:1057C0003D4B5A78424B5A7002221A700022032A2B
:1057D000A8DC3C4B30339B1801321978374B995475
:1057E000F5E7384B59603A4BD96102221A70002212
:1057F000032A97DC334B30339B18013219782F4B37
:105800009954F5E72F4BD960314B596202221A7037
:105810000022032A00DD85E72A4B30339B18013232
:105820001978264B9954F4E7264B9960284B196256
:1058300002221A700022032A00DD73E7214B303365
:105840009B18013219781D4B9954F4E71D4B1961CF
:105850001F4B996202221A700022032A00DD61E7C1
:10586000184B30339B1801321978144B9954F4E7D4
:105870001448FCF7D5FE164B9C6002221A700022D9
:10588000032A00DD4EE70F4B30339B1801321978A5
:105890000A4B9954F4E70E4B596002221A70002209
:1058A000032A00DD3EE7074B30339B18013219789D
:1058B000024B9954F4E7C0463C0500204405002003
:1058C000905E0008380A002010270000F004002035
:1058D000080A0020F0B5C64600B502681F4B9A4280
:1058E00002D004BC9046F0BD1D4D012229001D4888
:1058F000FDF77AF81C4CA76B391CE06BFBF74AF9F3
:10590000061C2888FBF72EFB8046A08DFBF72AFBA0
:10591000051C011C4046FBF73DF9011C301CFBF740
:105920001FF8061CE08DFBF71DFB291CFBF732F965
:10593000011C301CFAF74AFE011C381CFAF7AAFCBD
:10594000011C206300222000FCF7BAFDA06AFBF7CF
:10595000E9FA01B22000FCF739FEC2E7002000405E
:105960005C0400206C040020380A002010B50249B5
:105970000120FFF7BFFD10BDFFFF00001348854663
:1059800013480168090E134A914205D11248134980
:10599000016013481349016013481449144A002355
:1059A00002E0D458C4500433C4188C42F9D3114ACD
:1059B000114C002301E013600432A242FBD3FCF738
:1059C000B3FC00F02BF8FCF740FCFEE700180020C9
:1059D000040000001F000000181002400100000039
:1059E0000000014000000000000000203C040020F6
:1059F0007460000840040020B80A0020FEE70000A0
:105A0000062010B500F000F90120FCF787FCC04625
:105A1000014B18687047C0460C00002070B50C4D53
:105A20000C4E761BB61005D0002408CD01349847E3
:105A3000A642FAD100F08CF9074D084E761BB6103D
:105A400005D0002408CD01349847A642FAD170BD94
:105A5000646000086460000864600008706000080A
:105A6000F0B5C64600B50F2A41D903270D003E0008
:105A700005430C0003002E402F423DD11500103D80
:105A80002D09AC462D01A8468044256867681D6035
:105A90005F60A568E7689D60DF6010341F00103309
:105AA0004745F2D165460F230C2401352D014919D4
:105AB00013404519144222D08C59AC5104369C1B1A
:105AC000032CF9D80324043B9B0801339B0022409C
:105AD000ED18C918561E002A06D00023CC5C1A0007
